:02000000FA2FD5
:1001E00007308312990083169F01173081001A305F
:1001F0008500831285010800F1007108F000700885
:10020000FD00FD080319080083120514851600007F
:10021000000000000000000083120510851200009D
:100220000000000000000000000000000130FD029E
:100230000129F1007108F0007008FD00FD080319A4
:10024000080083120514851600000000000000005D
:10025000000000008312051085120000000000005D
:10026000000000000000000000000130FD021E2917
:10027000F1007108F0007008FD00FD080319080086
:100280008312051485160000000000000000000025
:10029000000000008312051085120000000000001D
:1002A000000000000000000000000000000001301D
:1002B000FD023D298312AE00AF01B0013008803A43
:1002C000FF0080307F02031D672905302F020318CD
:1002D000080077088312AB002B08F2007808AC0006
:1002E0002C08F3007908AD002D08F4002E087223C5
:1002F00019307A067B04031D882921308312AC0053
:100300007630AB00AB0B8229AC0B82290000A72909
:1003100072307A067B04031D982995308312AC0055
:100320000B30AB00AB0B9229AC0B92299729A72974
:100330008C307A067B04031DA729B6308312AC00EB
:10034000D030AB00AB0BA229AC0BA22900000130CE
:100350008312AF070318B00A0030B0075E2983127A
:10036000AE008E30FC20EB30F800B629B729F80B30
:10037000B529BA29BB298312A001A1012108803A1D
:10038000FF0080307F02031DC729083020020318B8
:10039000FC2983122E080139F8007808FC00FC08BB
:1003A000031DDA291430FC206330F800F80BD6293D
:1003B000D929E3291430FC20E530F800DF29F80BB7
:1003C000DE29E229E32983122E08F8000310780CB5
:1003D000F9007908AE000130A0070318A10A003027
:1003E000A1072108803AFF0080307F02031DFA290F
:1003F00008302002031CC9298312A201A30123088B
:10040000803AFF0080307F02031D082A0830220254
:1004100003183C2A72080139F8007808FC00FC082F
:10042000031D1A2A1430FC206330F800F80B162A3A
:10043000192A232A1430FC20E530F8001F2AF80B73
:100440001E2A222A232A7208F8000310780CF900C9
:100450007908F20001308312A2070318A30A0030C2
:10046000A3072308803AFF0080307F02031D3A2A49
:1004700008302202031C0A2A8312A401A5012508C0
:10048000803AFF0080307F02031D482A0830240292
:1004900003187C2A73080139F8007808FC00FC086E
:1004A000031D5A2A1430FC206330F800F80B562A3A
:1004B000592A632A1430FC20E530F8005F2AF80B33
:1004C0005E2A622A632A7308F8000310780CF90088
:1004D0007908F30001308312A4070318A50A00303D
:1004E000A5072508803AFF0080307F02031D7A2A85
:1004F00008302402031C4A2A8312A601A7012708F8
:10050000803AFF0080307F02031D882A08302602CF
:100510000318BC2A74080139F8007808FC00FC08AC
:10052000031D9A2A1430FC206330F800F80B962A39
:10053000992AA32A1430FC20E530F8009F2AF80BF2
:100540009E2AA22AA32A7408F8000310780CF90046
:100550007908F40001308312A6070318A70A0030B7
:10056000A7072708803AFF0080307F02031DBA2AC0
:1005700008302602031C8A2A8312A801A90129082F
:10058000803AFF0080307F02031DC82A083028020D
:100590000318FC2A75080139F8007808FC00FC08EB
:1005A000031DDA2A1430FC206330F800F80BD62A39
:1005B000D92AE32A1430FC20E530F800DF2AF80BB2
:1005C000DE2AE22AE32A7508F8000310780CF90005
:1005D0007908F50001308312A8070318A90A003032
:1005E000A9072908803AFF0080307F02031DFA2AFC
:1005F00008302802031CCA2A8312AA01AB012B0867
:10060000803AFF0080307F02031D082B08302A0249
:1006100003183C2B76080139F8007808FC00FC0828
:10062000031D1A2B1430FC206330F800F80B162B36
:10063000192B232B1430FC20E530F8001F2BF80B6E
:100640001E2B222B232B7608F8000310780CF900C0
:100650007908F60001308312AA070318AB0A0030AC
:10066000AB072B08803AFF0080307F02031D3A2B36
:1006700008302A02031C0A2B8312AC01AD012D089D
:10068000803AFF0080307F02031D482B01302C028E
:100690000318080077080139F8007808FC00FC0806
:1006A000031D5A2B1430FC206330F800F80B562B36
:1006B000592B632B1430FC20E530F8005F2BF80B2E
:1006C0005E2B622B632B7708F8000310780CF9007F
:1006D0007908F70001308312AC070318AD0A003027
:1006E000AD073F2B8312AA007308013A031DC82BE4
:1006F0005B30FC20E930F500F50B7C2B8312D70131
:10070000D801073057020318C32B72080139F500CE
:100710007508FC007C08013A031D902B2C30912BAE
:100720001530FC207208F5000310750CF6007608F1
:10073000F200E230F500F50B9B2B00000130F500D4
:1007400075088312D707812B2A080139F50075082F
:10075000FC007C08013A031DAF2B2C30B02B153068
:10076000FC2083122A08F5000310750CF6007608A9
:10077000AA00E230F500F50BBB2B00000130F500BC
:1007800075088312D8070530580203180800A42BF7
:100790007308023A031DD92C223019210630F600C5
:1007A000F830F500F50BD22BF60BD22B8312A001FB
:1007B000A1012108803AFF0080307F02031DE22B57
:1007C000083020020318172C83122A080139F5007B
:1007D0007508FC007C08013A031DF72B1030192125
:1007E000F130F500F32BF42BF50BF22BFE2B103030
:1007F0001921BD30F500F50BFB2BFE2B83122A08C7
:10080000F5000310750CF6007608AA000130A00769
:100810000318A10A0030A1072108803AFF008030A8
:100820007F02031D152C08302002031CE42B8312C9
:10083000A201A3012308803AFF0080307F02031D3C
:10084000232C083022020318572C83122A0801395E
:10085000F5007508FC00FC08031D372C1030192129
:10086000F130F500332C342CF50B322C3E2C1030AB
:100870001921BD30F500F50B3B2C3E2C83122A08C4
:10088000F5000310750CF6007608AA000130A207E7
:100890000318A30A0030A3072308803AFF00803022
:1008A0007F02031D552C08302202031C252C8312C5
:1008B000A401A5012508803AFF0080307F02031DB6
:1008C000632C083024020318972C72080139F500B4
:1008D0007508FC007C08013A031D772C10301921A3
:1008E000F130F500732C742CF50B722C7E2C10302B
:1008F0001921BD30F500F50B7B2C7E2C7208F5001C
:100900000310750CF6007608F20001308312A4077C
:100910000318A50A0030A5072508803AFF0080309B
:100920007F02031D952C08302402031C652C8312C2
:10093000A601A7012708803AFF0080307F02031D2F
:10094000A32C083026020318D62C72080139F500B2
:100950007508FC00FC08031DB62C10301921F1307D
:10096000F500B22CB32CF50BB12CBD2C1030192195
:10097000BD30F500F50BBA2CBD2C7208F500031044
:10098000750CF6007608F20001308312A6070318F2
:10099000A70A0030A7072708803AFF0080307F02AF
:1009A000031DD42C08302602031CA52C103019215D
:1009B00008001C303821ED30F5000000F50BDD2C6F
:1009C00000001C303821ED30F5000000F50BE52C5F
:1009D0000000F408031DF42C1C303821ED30F50024
:1009E0000000F50BF02C00007408013A031D002DE7
:1009F000ED30F5000000F50BFA2C00001C3038211A
:100A00008312A801053028020318302D2A08013965
:100A1000F5007508FC007C08013A031D182D1C30F8
:100A20003821ED30F5000000F50B132D0000202DCE
:100A3000ED30F5000000F50B1A2D00001C303821B8
:100A400083122A08F5000310750CF6007608AA0038
:100A50000130F5007508A80705302802031C062D93
:100A6000A901063029020318080072080139F500AF
:100A70007508FC007C08013A031D472D1C30382105
:100A8000ED30F5000000F50B422D00004F2DED304C
:100A9000F5000000F50B492D00001C3038217208CC
:100AA000F5000310750CF6007608F2000130F50031
:100AB00075088312A907312DF02013308312B1007D
:100AC0003108B900CC01CC0A1530B1003108BA00A8
:100AD0001230B1003108BB00ED30B1003108CD005B
:100AE0001A30B1003108BC001E30B1003108BD0021
:100AF0000B30B1003108BE000230B1003108CE0029
:100B00002030B1003108CF008030B1003108D00072
:100B1000D1012030B1003108B700A030B100310858
:100B2000B8002130B1003108CA00A130B10031084D
:100B3000CB003D30B1003108BF00BD30B1003108FD
:100B4000C000D201D301D30A1430B1003108C10072
:100B50001630B1003108C2004830B1003108C3007E
:100B60004030B1003108D4001230B1003108C40067
:100B70001A30B1003108C5001E30B1003108C6007E
:100B80002230B1003108C7000C30B1003108C80074
:100B90000230B1003108C9001030B1003108D50071
:100BA000D601051505108512851C7E2E8B2E390861
:100BB000B1003108F700F801F80AF9011930FA001C
:100BC0000030FB004C085A210D308312B200FB307C
:100BD000B100B10BE92DB20BE92DEE2D83124708C0
:100BE000B1003108F7000330B2003208F8005608AF
:100BF000B3003308F9007230FA000030FB005508EA
:100C00005A210D308312B200FB30B100B10B062E19
:100C1000B20B062E0B2E83123D08B1003108F700EF
:100C20000230B2003208F800F9018C30FA000030CE
:100C3000FB004D085A210D308312B200FB30B10089
:100C4000B10B202EB20B202E252E83124F08B1009F
:100C50003108F2005008B2003208F3005108B30026
:100C60003308F4004A08B4003408F5004B08B50016
:100C70003508F6005208B6003608F7004E08AF21D6
:100C80000D308312B200FB30B100B10B452EB20B18
:100C9000452E4A2E83124208B1003108F700023077
:100CA000B2003208F800F9018C30FA000030FB0085
:100CB00053085A210D308312B200FB30B100B10B42
:100CC0005F2EB20B5F2E642E83124608B1003108EE
:100CD000F7000230B2003208F800F9018C30FA0057
:100CE0000030FB0054085A210D308312B200FB3053
:100CF000B100B10B792EB20B792E7E2E8312851C9A
:100D0000D72DD608031D872ED601D60A8B2E56085E
:100D1000013A0319D601851D352F422F3A08B1003B
:100D20003108F700F801F80AF9011930FA0000302B
:100D3000FB004C085A210D308312B200FB30B10089
:100D4000B10BA02EB20BA02EA52E83124808B10025
:100D50003108F7000330B2003208F8005608B3003B
:100D60003308F9007230FA000030FB0055085A21B0
:100D70000D308312B200FB30B100B10BBD2EB20BAF
:100D8000BD2EC22E83123E08B1003108F70002309A
:100D9000B2003208F800F9018C30FA000030FB0094
:100DA0004D085A210D308312B200FB30B100B10B57
:100DB000D72EB20BD72EDC2E83124F08B10031088C
:100DC000F2005008B2003208F3005108B3003308B3
:100DD000F4003F08B4003408F5004008B5003508B9
:100DE000F6005208B6003608F7004E08AF210D3065
:100DF0008312B200FB30B100B10BFC2EB20BFC2E03
:100E0000012F83124308B1003108F7000230B2000D
:100E10003208F800F9018C30FA000030FB0053086A
:100E20005A210D308312B200FB30B100B10B162FE6
:100E3000B20B162F1B2F83124408B1003108F700A4
:100E40000230B2003208F800F9018C30FA000030AC
:100E5000FB0054085A210D308312B200FB30B10060
:100E6000B10B302FB20B302F352F8312851D8E2EF4
:100E7000D608031D3E2FD601D60A422F5608013A46
:100E80000319D601051EEC2FD12D3B08B100310806
:100E9000F700F801F80AF9011930FA000030FB00F8
:100EA0004C085A210D308312B200FB30B100B10B57
:100EB000572FB20B572F5C2F83124908B10031080E
:100EC000F7000330B2003208F8005608B3003308C8
:100ED000F9007230FA000030FB0055085A210D303D
:100EE0008312B200FB30B100B10B742FB20B742F20
:100EF000792F83123C08B1003108F7000230B200AC
:100F00003208F800F9018C30FA000030FB004D087F
:100F10005A210D308312B200FB30B100B10B8E2F7D
:100F2000B20B8E2F932F83124F08B1003108F200BD
:100F30005008B2003208F3005108B3003308F4003F
:100F40004A08B4003408F5004B08B5003508F6002F
:100F50005208B6003608F7004E08AF210D30831254
:100F6000B200FB30B100B10BB32FB20BB32FB82FCF
:100F700083124108B1003108F7000230B200320894
:100F8000F800F9018C30FA000030FB0053085A21B8
:100F90000D308312B200FB30B100B10BCD2FB20B7C
:100FA000CD2FD22F83124508B1003108F70002304F
:100FB000B2003208F800F9018C30FA000030FB0072
:100FC00054085A210D308312B200FB30B100B10B2E
:100FD000E72FB20BE72FEC2F8312051E452FD60803
:100FE000031DF52FD601D60AD12D5608013A031D4F
:100FF000D12DD02DFC01FD01D701D80183015C2D3D
:02400E00C4F0FC
:00000001FF
